8=FIX.4.2|9=54|35=0|34=57|49=FEME|52=20210110-12:35:58.547000|56=N2N|10=136|