8=FIX.4.2|9=57|35=1|34=5151|49=CLIENT1|52=20210108-11:02:54.000000|56=MARKET|112=TEST|10=175|10=206|
8=FIX.4.2|9=266|35=D|34=241|49=N2N|50=ricky1|52=20210108-03:20:22.126|56=FEME|57=G|142=MY|1=B10013|11=MY399001|21=0|38=1|40=2|44=3945.000000|54=1|55=1004|59=0|60=20210108-03:02:07.700|107=FCPOG1|167=FUT|204=1|1028=Y|1031=Y|1603=global connect|1604=3.0|1605=N2N|9702=4|9717=MY399001|10=061|
8=FIX.4.2|9=74|35=A|34=5098|49=CLIENT1|52=20210108-10:49:58.000000|56=MARKET|98=0|108=30|10=225|
8=FIX.4.2|9=71|35=A|34=3|49=MARKET|52=20210108-10:51:12.000155|56=CLIENT1|108=30|98=0|10=053|

