8=FIX.4.2|9=296|35=D|34=26|43=Y|49=N2N|50=ricky1|52=20210111-05:39:30.899|56=FEME|57=G|122=20210111-04:24:24.397|142=MY|1=B10013|11=MY399400|21=0|38=1|40=2|44=3380.000000|54=2|55=1004|59=0|60=20210108-09:04:33.447|107=FCPON1|167=FUT|204=1|1028=Y|1031=Y|1603=global connect|1604=3.0|1605=N2N|9702=4|9717=MY399400|10=056|
8=FIX.4.2|9=158|35=3|34=72|49=FEME|50=G|52=20210111-05:39:31.045|56=N2N|57=ricky1|143=MY|45=25|58=Value is incorrect (out of range) for this tag, field=21|371=21|372=D|373=5|10=002|