8=FIXT.1.1|9=137|35=X|34=138|49=FEMD|52=20210314-13:38:26.407|56=MD_BANZAI_CLIENT|268=1|279=2|269=1|55=FMG3-MAR21|48=186759|270=111.25|271=0|346=0|1023=1|10=081|
8=FIXT.1.1|9=137|35=X|34=139|49=FEMD|52=20210314-13:38:35.685|56=MD_BANZAI_CLIENT|268=1|279=1|269=0|55=FMG3-MAR21|48=186759|270=111.25|271=2|346=1|1023=1|10=091|