8=FIX.4.4|9=82|35=c|34=7|49=MDCLIENT1|52=20210130-03:15:07.000000|56=FEME|320=TESTREQUEST1|321=3|10=154|
8=FIX.4.4|9=113|35=d|34=155|49=FEME|52=20210130-04:52:14.454|56=MDCLIENT1|55=APPLE|167=CS|320=TESTREQUEST1|322=123|323=1|470=USA|10=096|
8=FIX.4.4|9=81|35=d|34=192|49=FEME|52=20210130-05:08:07.486|56=MDCLIENT1|55=DELL|167=CS|470=USA|10=014|
8=FIX.4.4|9=146|35=d|34=252|49=FEME|52=20210130-07:02:32.217|56=MDCLIENT1|320=TESTREQUEST1|322=123|323=1|711=2|311=DELL|310=CS|592=USA|311=APPLE|310=CS|592=CHINA|10=043|
8=FIX.4.4|9=113|35=8|34=52|49=MD_CLIENT|52=20210130-16:24:07.336|56=FEME|6=0|11=123|14=0|17=0|37=123|39=8|54=1|103=0|150=8|151=0|10=146|