8=FIX.4.2|9=107|35=W|34=0|49=FEME|52=|56=MDCLIENT1|55=hello|262=TESTREQUEST1|268=2|269=0|270=0.0|271=0|269=1|270=0.0|271=0|10=206|