8=FIX.4.4|9=141|35=8|34=25|49=FEME|52=20210131-08:22:08.511|56=N2N|6=0|11=1612081328441|14=0|17=0|31=11|32=0|37=1612081328441|38=111|39=0|54=1|150=0|151=111|10=024|